:03000000020006F5
:03005F0002000399
:0300030002026294
:20006200438E0C90000022AF83E582900404F0EFA3F03099FD900404E0FEA3E0FF8E99C2A5
:20008200998E828F832210980280FBAE997F008E828F83227497C0E07404C0E012037215F3
:2000A200811581120088E5828583F024D0FEE5F034FFFFC007C006C006C00774B4C0E074DF
:2000C20004C0E0120372E58124FCF581D006D007C007C006C006C00774BCC0E07404C0E048
:2000E200120372E58124FCF581D006D007C3EE9401EF9400404074089EE49F4039C007C0E8
:200102000674CAC0E07404C0E012037215811581D006D007C007C006C006C00774D8C0E07B
:200122007404C0E0120372E58124FCF581D006D0078E828F832274E0C0E07404C0E0120310
:200142007215811581020096758F1F43A880438920439850438840758DFDD2992274F4C003
:20016200E07404C0E01203721581158175D90275E90075F90075EABF75FABF75D84075DA8E
:2001820042227402C0E07405C0E012037215811581E5DA75DA00227415C0E07405C0E01293
:2001A200037215811581759700227432C0E07405C0E0120372158115817597FF22744FC0AC
:2001C200E07405C0E012037215811581758701227464C0E07405C0E01203721581158143CB
:2001E200870222747FC0E07405C0E01203721581158175D90275EA0075FA0075D84075DAF9
:200202004C22900402E0F5F0A3E045F07019748CC0E07405C0E012037215811581900402D0
:200222007401F0E4A3F0227498C0E07405C0E012037215811581900402E4F0A3F022900493
:2002420002E0FEA3E0FFBE0113BF001075EE0075FEFF43D94075D84043DE4C2275D90022DC
:2002620012014A74A5C0E07405C0E01203721581158174E2C0E07405C0E012037215811559
:200282008174F7C0E07405C0E012037215811581740DC0E07406C0E01203721581158174A2
:2002A2005EC0E07406C0E01203721581158174AEC0E07406C0E01203721581158174C6C0E8
:2002C200E07406C0E01203721581158174E4C0E07406C0E0120372158115817408C0E0741A
:2002E20007C0E012037215811581120088AE82AF83900400EEF0EFA3F08E828F8312006915
:20030200900400E0FEA3E0FFBE3109BF000612015F020265BE3209BF000612018402026591
:20032200BE3309BF0006120199020265BE3409BF00061201AC020265BE3509BF000612012B
:20034200BF020265BE3609BF00061201D2020265BE3709BF00061201E5020265BE3805BF85
:1003620000028003020265120204120240020265C8
:20049700456E74657220612076616C756520627477203120616E642036200D0A00613D202D
:2004B70025640D0A006E756D626572203D2025640A0D0076616C696420696E7075740D0A68
:2004D700006E756D3D202564006E6F7420612076616C696420696E7075740D0A0052756E31
:2004F7006E696E672050574D0D0A0053746F7070696E67207468652050574D0D0A00676F58
:20051700696E6720746F206D696E696D756D206672657175656E63790D0A00676F696E674A
:2005370020746F206D6178696D756D206672657175656E63790D0A00676F696E6720746F63
:200557002069646C65206D6F64650D0A00676F696E6720746F20706F77657220646F776EAE
:20057700206D6F64650D0A00686967682073706565640D0A007761746368646F675F6F6E13
:20059700007761746368646F675F6F6666002A2A2A2A2A2A2A2A2A2A2A2A2A5553455220D8
:2005B7004D454E5520666F72204C41422033205061727420332A2A2A2A2A2A2A2A2A2A2A6E
:2005D7002A2A2A2A2A2A2A2A0D0A003120666F722072756E2050574D206D6F64650D0A00A0
:2005F7003220666F722073746F702050574D206D6F64650D0A003320666F72536574204649
:20061700434C4B2050455249504820617420746865206D696E696D756D20667265717565E7
:200637006E637920737570706F727465642062792074686520434B524C20726567697374FD
:20065700657220200D0A003420666F72205365742046434C4B205045524950482061742031
:20067700746865206D6178696D756D206672657175656E637920737570706F7274656420EC
:2006970062792074686520434B524C2072656769737465720D0A003520666F7220456E743C
:2006B70065722049646C65206D6F64650D0A003620666F7220456E74657220506F776572EA
:2006D70020446F776E206D6F64650D0A003720666F7220456E74657220666F722048696714
:2006F7006820537065656420546F67676C650D0A003820666F7220456E74657220666F72AD
:12071700207761746368646F672074696D65720D0A0007
:06003500E478FFF6D8FD9F
:200013007900E94400601B7A00900729780675A004E493F2A308B8000205A0D9F4DAF2755A
:02003300A0FF2C
:20037200C008858108E50824FDF8868318868218E493A324DB600C2425600512046080F035
:20039200020478D2D5E493A3C083C082B4731486F01886831886821812047B6054A312047F
:2003B2006080F5B4630818E6181204608043B46417E630E74618E6F42401F608E6F4340053
:2003D200F6742D1204608033B4782D868318868218E4120451E583120450E583120451E5E4
:2003F20082120450E58212045130D5057430120460D082D083020382B475F6E6FA18E6F9EF
:20041200187C107D2712043BFF7CE87D0312043BC4F5837C647D0012043B4283E975F00AF6
:2004320084C445F0F582EF80A97B000BC3E99CF9EA9DFA50F61BE92CF9EA3DFAEB22C454A1
:200452000F700320D51FC2D52490D43440D4C083C082C0F0F582E8C0E0120069D0E0F8D066
:09047200F0D082D08322D00822D0
:20003B007800E84400600A790075A004E4F309D8FC7806E84400600C7901900400E4F0A3B6
:04005B00D8FCD9FAFA
:0D000600758108120062E5826003020003AC
:1C047B0020F71430F6148883A88220F507E6A88375830022E280F7E49322E02290
:00000001FF
