:023464008813CB
:03200000022006B5
:03205F0002200359
:032003000223F0C5
:10206200438E0C90000022AF83E582902AB8F0EFF5
:10207200A3F03099FD902AB8E0FEA3E0FF8E99C24A
:10208200998E828F832210980280FBAE997F008EF8
:10209200828F83227466C0E07434C0E012317A15F4
:1020A200811581122088E5828583F024D0FEE5F037
:1020B20034FFFFC007C006C006C00774A4C0E074A6
:1020C20034C0E012317AE58124FCF581122088E5E2
:1020D200828583F024D0FCE5F034FFFDC005C00406
:1020E200C004C00574ACC0E07434C0E012317AE5BB
:1020F2008124FCF581122088E5828583F024D0FAC0
:10210200E5F034FFFBC003C002C002C00374B4C0D8
:10211200E07434C0E012317AE58124FCF5811220AA
:1021220088E5828583F024D0F8E5F034FFF9C00118
:10213200C000C000C00174BEC0E07434C0E01231FF
:102142007AE58124FCF581D000D001D002D003D001
:1021520004D005D006D007902B32EEF0EFA3F0901A
:1021620003E8C005C004C003C002C001C0001234AD
:1021720028AE82AF83D000D001D002D003D004D0E9
:1021820005902B32ECF0EDA3F0900064C007C0067E
:10219200C003C002C001C000123428AC82AD83D09B
:1021A20000D001D002D003D006D007EC2EFEED3FC6
:1021B200FF902B32EAF0EBA3F090000AC007C006B2
:1021C200C001C000123428AC82AD83D000D001D04F
:1021D20006D007EC2EFEED3FFFE82EFEE93FFFC0E2
:1021E20007C006C006C00774C9C0E07434C0E0125C
:1021F200317AE58124FCF581D006D0078E048F0563
:10220200C3EC9430ED9400404F8E048F05C374C02C
:102212009C74129D40428E048F05EC540F7039C09D
:1022220007C00674D7C0E07434C0E012317A158159
:102232001581D006D007C007C006C006C00774E5E6
:10224200C0E07434C0E012317AE58124FCF581D01B
:1022520006D0078E828F832274EDC0E07434C0E012
:1022620012317A158115810220967401C0E074350D
:10227200C0E012317A15811581122088E5828583AA
:10228200F024D0FEE5F034FFFFC007C006C006C050
:1022920007742AC0E07435C0E012317AE58124FC6B
:1022A200F581122088E5828583F024D0FCE5F034A4
:1022B200FFFDC005C004C004C0057435C0E074351C
:1022C200C0E012317AE58124FCF581122088E58292
:1022D2008583F024D0FAE5F034FFFBC003C002C0CE
:1022E20002C0037440C0E07435C0E012317AE58167
:1022F20024FCF581D002D003D004D005D006D0074B
:10230200902B32EEF0EFA3F0900064C005C004C041
:1023120003C002123428AE82AF83D002D003D004AD
:10232200D005902B32ECF0EDA3F090000AC007C06C
:1023320006C003C002123428AC82AD83D002D0039F
:10234200D006D007EC2EFEED3FFFEA2EFEEB3FFF5C
:10235200C007C006C006C007744BC0E07435C0E0B9
:1023620012317AE58124FCF581D006D0078E048FE4
:1023720005C3EC941EED9400500302226C8E048F70
:1023820005C3742C9C74019D500302226C8E828FB3
:1023920083227467C0E07435C0E012317A1581156A
:1023A20081122088E5828583F024D0FEE5F034FF97
:1023B200FFC007C006122088E5828583F0D006D0D0
:1023C2000724D0FCE5F034FFFD902B32EEF0EFA3B2
:1023D200F090000AC005C004123428E5828583F01B
:1023E200D004D0052CFCED35F08C82F5832212202E
:1023F20096858212858313C012C013748CC0E07458
:1024020035C0E012317AE58124FCF581851282859E
:1024120013831232BFAC82AD83902A48ECF0EDA355
:10242200F08C028D03902AB0EAF0EBA3F0EC4D6041
:102432002A749DC0E07435C0E012317A158115818D
:10244200902AB0E0C0E0A3E0C0E074C0C0E0743500
:10245200C0E012317AE58124FCF581851282851370
:10246200831232BFAC82AD83902A4AECF0EDA3F026
:102472008C028D03902AB2EAF0EBA3F0EC4D602AB5
:1024820074E5C0E07435C0E012317A15811581908F
:102492002AB2E0C0E0A3E0C0E07408C0E07436C035
:1024A200E012317AE58124FCF5817C007D00750E15
:1024B200028D0FE4F510F511C005C004742DC0E0C3
:1024C2007436C0E012317A15811581122088AA82F1
:1024D200AB83902AB4EAF0EBA3F0902B36E0240110
:1024E200F0A3E03400F08A828B83122069902AB430
:1024F200E0C0E0A3E0C0E07441C0E07436C0E01286
:10250200317AE58124FCF581D004D0058C028D035B
:10251200C3EA9512EB951340030225D0902AB4E04A
:10252200F508A3E0F509C3E5089461E50964809420
:102532008050030225D0C3747A950874808509F00F
:1025420063F08095F050030225D0902B34E02401F3
:10255200F0A3E03400F0902A48E0FAA3E0FBEC2A72
:10256200F582ED3BF583E508F0902A48E0FAA3E016
:10257200FBEC2AFAED3BFB902B1EEAF0EBA3F0E416
:10258200A3F00CBC00010DC005C004902B1EE0C0DE
:10259200E0A3E0C0E0A3E0C0E0745DC0E07436C038
:1025A200E012317AE58124FBF581D004D005C00523
:1025B200C004C004C005746CC0E07436C0E01231BF
:1025C2007AE58124FCF581D004D0050224BA8C027C
:1025D2008D03EAB51268EBB51364902AB4E0F508EE
:1025E200A3E0F509742DB50806E4B50902804F741D
:1025F2002BB50806E4B509028044743FB50806E429
:10260200B5090280397440B50806E4B50902802E86
:10261200743DB50806E4B509028023850882850960
:1026220083C005C0041220697479C0E07436C0E02A
:1026320012317A15811581D004D0050224BA902A6C
:10264200B4E0F508A3E0F509742BB50806E4B50972
:10265200028003022799C005C004748AC0E0743660
:10266200C0E012317A1581158174A5C0E07436C0BC
:10267200E012317A1581158112226C85820A8583D6
:102682000BE5102510FAE51133FBEA244CF50CEBAF
:10269200342AF50D850A82850B831232BFAA82ABDA
:1026A20083D004D005850C82850D83EAF0EBA3F07C
:1026B200EA4B702974022510FAE43511FBC005C0FB
:1026C20004C002C00374CCC0E07436C0E012317A98
:1026D200E58124FCF581D004D0050224BAC004C0EF
:1026E2000574022510FCE43511FDC005C004C004C8
:1026F200C005740FC0E07437C0E012317AE581245E
:10270200FCF581D004D005C005C004C00AC00BC0CE
:1027120004C005743EC0E07437C0E012317AE5812E
:1027220024FAF581D004D005902B38E0FAA3E0FB1F
:10273200EA2AFAEB33FBEA244CF582EB342AF583DE
:10274200E0FAA3E0FBC005C004C002C003C004C09D
:10275200057461C0E07437C0E012317AE58124FA71
:10276200F581D004D005E50E250EFCE50F33FDEC16
:1027720024BAF582ED342AF583E50AF0E50BA3F0DD
:10278200050EE4B50E02050F0510E4B510020511A1
:10279200D005D0040224BA742DB50806E4B50902A6
:1027A2008003022953C005C0047481C0E07437C09D
:1027B200E012317A15811581122394AA82AB83D05B
:1027C20004D005EA4B701AC005C00474A1C0E074BD
:1027D20037C0E012317A15811581D004D005022468
:1027E200BABA0164BB0061C004C005902A4AE0FC89
:1027F200A3E0F97D008C8289838DF0C005C00412AC
:102802003023D004D005902A4AE0FCA3E0FDC005A5
:10281200C004C004C00574C1C0E07437C0E0123106
:102822007AE58124FCF581902A4AE4F0A3F074D180
:10283200C0E07437C0E012317A15811581D004D01E
:1028420005D005D0040224BA8A008B01C374019812
:10285200E4994003022939C004C00574022510F826
:10286200E43511F98A048B05C3E89CE99DD005D0B3
:10287200045003022939C004C005C005C004C003C6
:10288200C002C002C00374E4C0E07437C0E0123179
:102892007AE58124FCF581D002D003D004D0058AE8
:1028A200001818C2D575F002E830E704B2D5F40476
:1028B200A430D50AF42401C5F0F43400C5F0244C48
:1028C200F582742A35F0F583E0F8A3E0F97D0088FB
:1028D2008289838DF0C005C004C003C00212302378
:1028E200D002D003C003C002C002C0037404C0E01F
:1028F2007438C0E012317AE58124FCF581D002D02F
:1029020003D004D0051A1AC2D575F002EA30E704E2
:10291200B2D5F404A430D50AF42401C5F0F434008D
:10292200C5F0244CF582742A35F0F583E4F0A3F067
:10293200D005D0040224BAC005C004741BC0E074E0
:1029420038C0E012317A15811581D004D0050224F5
:10295200BA743FB50806E4B509028003022CEDC043
:1029620005C0047461C0E07438C0E012317A158188
:102972001581902AB0E0C0E0A3E0C0E0747DC0E021
:102982007438C0E012317AE58124FCF581902AB0D6
:10299200E0FAA3E0FBE5122AFAE5133BFBC002C012
:1029A20003749DC0E07438C0E012317AE58124FCE2
:1029B200F581C012C01374BFC0E07438C0E0123198
:1029C2007AE58124FCF581902B34E0C0E0A3E0C0DD
:1029D200E074DEC0E07438C0E012317AE58124FC94
:1029E200F581902B34E0FAA3E0FBE512C39AFAE5F5
:1029F200139BFBC002C0037403C0E07439C0E01231
:102A0200317AE58124FCF581D004D005902A4AE090
:102A1200F5F0A3E045F07003022AADC005C00474CE
:102A22001FC0E07439C0E012317A15811581902AF5
:102A3200B2E0C0E0A3E0C0E0743BC0E07439C0E0A3
:102A420012317AE58124FCF581902AB2E0FAA3E002
:102A5200FBE5122AFAE5133BFBC002C003745DC01A
:102A6200E07439C0E012317AE58124FCF581C012AC
:102A7200C013747FC0E07439C0E012317AE581245A
:102A8200FCF5817491C0E07439C0E012317A15818D
:102A92001581C012C01374B6C0E07439C0E012319F
:102AA2007AE58124FCF581D004D00574022510FA60
:102AB200E43511FB78027900C3EA98EB648089F06F
:102AC20063F08095F05003022C88C004C005E8F53D
:102AD2000C24FEFDC2D575F002ED30E704B2D5F448
:102AE20004A430D50AF42401C5F0F43400C5F0245E
:102AF2004CF582742A35F0F583E0FCA3E04CD00556
:102B0200D0047003022C80C004C005C005C004C0FC
:102B120003C002C001C000C000C00174DCC0E07488
:102B220039C0E012317AE58124FCF581D000D00170
:102B3200D002D003D004D005E50C24FEFDC2D57529
:102B4200F002ED30E704B2D5F404A430D50AF4243F
:102B520001C5F0F43400C5F0244CFC742A35F0FDB4
:102B62008C828D83E0FEA3E0FFC005C004C003C0D9
:102B720002C001C000C006C00774EAC0E07439C0D8
:102B8200E012317AE58124FCF581D000D001D00237
:102B9200D003D004D0058C828D83E0FCA3E0FD8CB1
:102BA2000C8D0DE828FEE933FFEE24BAFEEF342A3D
:102BB200FF8E828F83E0FCA3E0FDEC250CFCED355B
:102BC2000DFDC007C006C005C004C003C002C0019D
:102BD200C000C004C0057400C0E0743AC0E0123105
:102BE2007AE58124FCF581D000D001D002D003D057
:102BF20004D005D006D0078E828F83E0FCA3E0FDCF
:102C0200C007C006C005C004C003C002C001C000A6
:102C1200C004C005747FC0E07439C0E012317AE5A7
:102C22008124FCF5817417C0E0743AC0E012317A55
:102C320015811581D000D001D002D003D004D00577
:102C4200D006D0078E828F83E0FEA3E0FFC005C0CE
:102C520004C003C002C001C000C006C0077403C0A4
:102C6200E07439C0E012317AE58124FCF581D000AC
:102C7200D001D002D003D004D005D005D00408B8CA
:102C8200000109022ABAC005C004902B34E0C0E05A
:102C9200A3E0C0E07439C0E0743AC0E012317AE5D2
:102CA2008124FCF581902B36E0C0E0A3E0C0E07403
:102CB2005FC0E0743AC0E012317AE58124FCF5810C
:102CC200902B38E0FEA3E0FF74022EFEE43FFFC02B
:102CD20006C007748CC0E0743AC0E012317AE58114
:102CE20024FCF581D004D0050224BA743DB508064F
:102CF200E4B509028003022DFDC005C00474E0C0E2
:102D0200E0743AC0E012317A15811581D004D00501
:102D12007E007F00902B34E0FAA3E0FBC3EE9AEF33
:102D22009B40030224BAEE4F7042902A48E0FAA375
:102D3200E0FBEE2AFAEF3BFB8A828B83E0F8790014
:102D4200C007C006C005C004C000C001C002C00365
:102D520074F9C0E0743AC0E012317AE58124FAF5E0
:102D620081D004D005D006D007022DF5740F5EFA8B
:102D72007B004B603B902A48E0F8A3E0F9EE28F58F
:102D820082EF39F583E0F87900C007C006C005C0BC
:102D920004C000C0017403C0E0743BC0E012317A89
:102DA200E58124FCF581D004D005D006D00780430C
:102DB200EA4B703F902A48E0FAA3E0FBEE2AFAEFD2
:102DC2003BFB8A828B83E0F87900C007C006C0050E
:102DD200C004C000C001C002C0037407C0E0743B5D
:102DE200C0E012317AE58124FAF581D004D005D011
:102DF20006D0070EBE00010F022D167426B5080676
:102E0200E4B509028003022F06C005C0047413C092
:102E1200E0743BC0E012317A15811581D004D005EF
:102E22007E007F00EE4F7042902A48E0FAA3E0FB5A
:102E3200EE2AFAEF3BFB8A828B83E0F87900C00727
:102E4200C006C005C004C000C001C002C00374F9BE
:102E5200C0E0743AC0E012317AE58124FAF581D0FB
:102E620004D005D006D007022EF3740F5EFA7B0061
:102E72004B603B902A48E0F8A3E0F9EE28F582EF98
:102E820039F583E0F87900C007C006C005C004C068
:102E920000C0017403C0E0743BC0E012317AE581E6
:102EA20024FCF581D004D005D006D0078043EA4B3C
:102EB200703F902A48E0FAA3E0FBEE2AFAEF3BFBD0
:102EC2008A828B83E0F87900C007C006C005C0047F
:102ED200C000C001C002C0037407C0E0743BC0E080
:102EE20012317AE58124FAF581D004D005D006D0DA
:102EF200070EBE00010FC3E49E74019F4003022E21
:102F0200260224BA7440B50806E4B5090280030219
:102F120024BAC005C0047428C0E0743BC0E012317A
:102F22007A15811581902A48E0FEA3E0FF7B008E8E
:102F3200828F838BF0123023743AC0E0743BC0E07E
:102F420012317A15811581745DC0E0743BC0E012C4
:102F5200317A15811581902A4AE0FEA3E0FF7B00B9
:102F62008E828F838BF01230237472C0E0743BC068
:102F7200E012317A15811581D004D0057402251032
:102F8200FEE43511FF7A027B008E008F01C3EA98BE
:102F9200EB9940030224BAC004C005C007C006C0B2
:102FA20005C004C003C002C002C0037488C0E0743C
:102FB2003BC0E012317AE58124FCF581D002D003D6
:102FC200D004D005EA2AF8EB33F9E8244CF582E97B
:102FD200342AF583E0F8A3E0F97D00888289838DA5
:102FE200F0C005C004C003C002123023D002D003D7
:102FF200C003C002C002C003749EC0E0743BC0E0C4
:1030020012317AE58124FCF581D002D003D004D0BC
:1030120005D006D0070ABA00010BD005D004022F52
:013022008B22
:10346600456E74657220612076616C7565206469AD
:1034760076697369626C65206274772034382061DE
:103486006E64203438303020616E64206469766959
:103496007369626C652062792031360D0A00613DE0
:1034A6002025640D0A00623D2025640D0A00206374
:1034B600203D2025640D0A002064203D202564203F
:1034C6000D0A006E756D626572203D2025640A0D39
:1034D6000076616C696420696E7075740D0A006E01
:1034E600756D3D202564006E6F7420612076616CD9
:1034F600696420696E7075740D0A00456E74657294
:1035060020612076616C75652064697669736962ED
:103516006C652062747720333020616E642033300E
:10352600300D0A002071203D202564200D0A002060
:1035360072203D202564200D0A002073203D2025A1
:1035460064200D0A006E65772076616C7565206FC4
:103556006620627566666572206973203D20256463
:1035660000656E74657220746865206E756D62659F
:1035760072206F662062756666657220746F2064BD
:10358600656C65746500746865206E756D6265723C
:10359600206973202564006D616C6C6F6320666F13
:1035A6007220627566666572302069732073756372
:1035B6006365737366756C0D0A0073746172746962
:1035C6006E672061646472657373206F662062752E
:1035D6006666657220302069732025780D0A006DB5
:1035E600616C6C6F6320666F7220627566666572C9
:1035F60031206973207375636365737366756C0D2B
:103606000A007374617274696E672061646472651E
:103616007373206F66206275666665722031206955
:10362600732025780D0A00456E746572206120634B
:1036360068617261637465720D0A00746865206959
:103646006E70757420636861726163746572206957
:10365600732025640D0A00627566666572206973BB
:10366600200D0A257000636F756E74203D20256459
:103676000D0A006275666665722069732066756C50
:103686006C0D0A0020416C6C6F636174696E672073
:1036960061206E6577206275666665720D0A006543
:1036A6006E7465722061206E65772076616C756533
:1036B600206265747765656E20333020616E642004
:1036C6003330300D0A000A0D4D656D6F7279204159
:1036D6006C6C6F636174696F6E20666F72204275E1
:1036E600666665725F2564204661696C65640A0DCD
:1036F600507265737320272B2720746F20547279BC
:1037060020616761696E0A0D000A0D4D656D6F7265
:103716007920416C6C6F636174696F6E20537563B9
:103726006365737366756C20666F72204275666694
:1037360065725F25640A0D000A0D4275666665723C
:103746005F256420616C6C6F6361746564206F66CD
:103756002073697A652025640A0D000A0D416464A8
:1037660072657373206F66206275666665725F2583
:1037760064203D20307825780A0D000A0D456E74C8
:10378600657220612076616C696420627566666583
:1037960072206E756D6265720A0D000A0D427566BD
:1037A60066657220302063616E6E6F7420626520DC
:1037B60064656C65746564210A0D000A0D427566C0
:1037C60066657220313E25640A0D0042756666659F
:1037D6007220312064656C657465640D0A000A0DFB
:1037E60044656C6574696E67206275666665725FAE
:1037F60025642E2E2E2E2E2E2E2E2E0A0D000A0D6E
:10380600427566666572202564202069732066729B
:1038160065650A0D000A0D456E7465722061207695
:10382600616C696420627566666572206E756D628C
:1038360065720A0D507265737320272D2720746FE9
:103846002064656C65746520616E792076616C69AB
:1038560064206275666665720A0D0020484541500F
:10386600205245504F5254206F6620627566666539
:10387600725F30200D0A000A0D5374617274204184
:103886006464726573736F66206275666665725FDF
:10389600307825780A0D000A0D456E64696E67203A
:1038A60041646472657373206F662062756666652F
:1038B600725F307825780A0D000A0D4275666665D6
:1038C600722053697A65206F662062756666657236
:1038D6005F302025640A0D000A0D53746F7265640B
:1038E600206368617261637465727320696E206219
:1038F60075666665723E3E3E25640A0D000A0D46F3
:103906007265652053706163657320696E20627508
:103916006666657225640A0D000A0D4865617020A9
:10392600737461747573206F66206275666665725E
:103936005F310A0D000A0D5374617274204164648C
:1039460072657373206F66206275666665725F3195
:10395600207825780A0D000A0D456E64696E672089
:1039660041646472657373206F662062756666656E
:10397600725F317825780A0D000A0D427566666514
:10398600722053697A6525640A0D000A0D53746F17
:103996007261676520636861726163746572732022
:1039A600696E206275666665723E3E3E300A0D009F
:1039B6000A0D467265652053706163657320696EF2
:1039C600206275666665723E3E3E3E3E3E3E3E3E29
:1039D6003E25640A0D000A0D4255464645522025ED
:1039E600640A0D000A0D5374617274204164647296
:1039F600657373307825780A0D000A0D456E646983
:103A06006E672041646472657373307825780A0D99
:103A1600000A0D53746F7261676520636861726195
:103A2600637465727320696E2062756666657230AE
:103A36000A0D000A0D4E756D626572206F66207361
:103A4600746F726167652063686172616374657221
:103A560073203D2025640A0D000A0D546F74616CB5
:103A6600206E756D626572206F6620636861726193
:103A76006374657273207265636569766564203D5B
:103A86002025640A0D000A0D546F74616C206E7552
:103A96006D626572206F6620627566666572732058
:103AA60074686174207765726520616C6C6F636100
:103AB6007465642073696E63652074686520737429
:103AC600617274206F66207468652070726F677209
:103AD600616D203D2025640A0D000A0D436F6E744A
:103AE600656E747320696E20427566666572203055
:103AF6000A0D00307825783E3E202578002025786E
:103B0600000A0D307825783E3E202578000A0D43C0
:103B16006F6E74656E747320696E20686561700AD5
:103B26000D000A0D4672656520427566666572204F
:103B3600300A0D000A0D42756666657220312077DF
:103B4600696C6C206E6F77206265636F6D652065AA
:103B56006D7074790A0D000A0D46726565696E67A7
:103B66002042756666657220310A0D000A0D42759F
:103B760066666572203120697320656D7074790AF6
:103B86000D000A0D46726565696E67206275666688
:103B960065725F25640A0D000A0D427566666572D8
:103BA600202564206672656564200A0D0000000009
:033BB6000000000C
:10302300AFF0AE83E582902B21F0EEA3F0EFA3F097
:10303300902B21E0FDA3E0FEA3E0902B21E0F5F02F
:10304300A3E045F0700122902B26E4F0A3F0902B2F
:103053002AE0FBA3E0FC902B24EBF0ECA3F0902BF5
:1030630028742AF0742BA3F0902B24E0FBA3E0FC3C
:103073004B60418B018C02C003C0048D008E04C3DE
:10308300E998EA9CD004D003502A902B26EBF0EC6D
:10309300A3F074022BFBE43CFC902B28EBF0ECA395
:1030A300F08B828C83E0FBA3E0FC902B24EBF0EC11
:1030B300A3F080B4902B24E0FEA3E0FF902B21E04B
:1030C300FBA3E0FCA3E0EB24FEFBEC34FFFC740267
:1030D3002BFAE43CFD8A828D83EEF0EFA3F0902B74
:1030E30028E0F8A3E0F988828983EBF0ECA3F08B66
:1030F300828C83E0F8A3E0F9EEB50033EFB5012F3E
:1031030088828983A3A3E0FEA3E0FF8A828D83EEF6
:10311300F0EFA3F08B828C83E0FEA3E0FF8E828F1F
:1031230083E0FEA3E0FF8B828C83EEF0EFA3F090AD
:103133002B26E0FEA3E0FF4E603C8E828F83E0F8F7
:10314300A3E0F9E8B5032FE9B5042B8B828C83E068
:10315300FBA3E0FC8E828F83EBF0ECA3F074022ED2
:10316300FEE43FFF8A828D83E0FAA3E0FD8E828F27
:0731730083EAF0EDA3F02256
:06203500E478FFF6D8FD7F
:102013007906E94400601B7A01903BB3783475A0DC
:102023002BE493F2A308B8000205A0D9F4DAF27501
:02203300A0FF0C
:10317A00C016858116E51624FDF8868318868218FE
:10318A00E493A324DB600C2425600512326880F0E6
:10319A00023280D2D5E493A3C083C082B47314866A
:1031AA00F0188683188682181234486054A31232A3
:1031BA006880F5B4630818E6181232688043B4646C
:1031CA0017E630E74618E6F42401F608E6F4340078
:1031DA00F6742D1232688033B4782D86831886826D
:1031EA0018E4123259E583123258E583123259E54E
:1031FA0082123258E58212325930D50574301232B1
:10320A0068D082D08302318AB475F6E6FA18E6F9F4
:10321A00187C107D27123243FF7CE87D031232436B
:10322A00C4F5837C647D001232434283E975F00A57
:10323A0084C445F0F582EF80A97B000BC3E99CF9B1
:10324A00EA9DFA50F61BE92CF9EA3DFAEB22C4543E
:10325A000F700320D51FC2D52490D43440D4C08324
:10326A00C082C0F0F582E8C0E0122069D0E0F8D050
:10327A00F0D082D08322D01622902B2A7400F074C8
:10328A0004A3F0903464E493FE740193FF1EBEFF1E
:10329A00011FEE2400FEEF3404FF900400EEF0EF6D
:1032AA00A3F0902B2AE0FEA3E0FF8E828F83A3A3D4
:1032BA00E4F0A3F022AF83E582902B2CF0EFA3F089
:1032CA00902B2AE0F5F0A3E045F0700312328390C8
:1032DA002B2CE0FEA3E0FF4E600E74022EFCE43FAE
:1032EA00FDC3EC9EED9F500490000022902B2C749D
:1032FA00022EF0E43FA3F0902B2CE0FEA3E0FFC3E4
:10330A00EE9404EF94005009902B2C7404F0E4A37B
:10331A00F0902B2AE0FEA3E0FF902B2EEEF0EFA315
:10332A00F0902B30742AF0742BA3F0902B2EE0FE31
:10333A00A3E0FF4E70030234248E828F83E0FCA345
:10334A00E0FD8C028D038E008F01EAC398FAEB9997
:10335A00FB8A008B01902B2CE0F514A3E0F515C332
:10336A00E89514E99515500302340174042514F8FC
:10337A00E43515F9C3EA98EB99404C8E028F03E5C0
:10338A00142AFAE5153BFB8A828B83ECF0EDA3F055
:10339A0074022AFCE43BFD8E828F83A3A3E0F8A388
:1033AA00E0F98C828D83E8F0E9A3F0902B30E0FC01
:1033BA00A3E0FD8C828D83EAF0EBA3F08E828F83EB
:1033CA00EAF0EBA3F0801C902B30E0FCA3E0FD8E2A
:1033DA00828F83A3A3E0FAA3E0FB8C828D83EAF0B9
:1033EA00EBA3F0902B2EE0FCA3E0FD74022CFCE48E
:1033FA003DFD8C828D832274022EFEE43FFF902BCA
:10340A0030EEF0EFA3F08E828F83E0FEA3E0FF9010
:10341A002B2EEEF0EFA3F002333590000022AA83A0
:10342A00AB828BF0902B32E0A4F8A9F08AF0E0A4EA
:0E343A0029F98BF0A3E0A429F58388822222D1
:10203B007800E84400600A790075A004E4F309D83D
:10204B00FC7834E84427600C7928900400E4F0A372
:04205B00D8FCD9FADA
:0D200600758116122062E58260030220033E
:1034480020F71430F6148883A88220F507E6A883AD
:0C34580075830022E280F7E49322E0225A
:00000001FF
