:03200000022006B5
:03205F0002200359
:032003000222E3D3
:202062007E007F008F050EBE00010FED20E7F522438E0C90000022AF83E582900400F0EF4B
:20208200A3F03099FD900400E0FEA3E0FF8E99C2998E828F832210980280FBAE997F008EB2
:2020A200828F8322122098AE82AF83C3EE9441EF64809480401974469E74808FF063F080D8
:2020C20095F0400B8E05ED24C9900402F080098E05ED24D0900402F08E828F8312207912D9
:2020E2002098AE82AF83C3EE9441EF64809480401974469E74808FF063F08095F0400B8E02
:2021020005ED24C9900403F080098E05ED24D0900403F08E828F83122079900402E0FFE4AD
:20212200CFC4CF6FCF54F0CF6FFE900403E07C002FFFEC3EFEC374FF9F74808EF063F0801A
:2021420095F040038F82220220A6D297D296122062C297122062C296022062C2971220629F
:20216200D296122062D29722900404E4F0D2977F00C296C007122062D007D296900404E018
:2021820025E0F030970A900404E043E001F08008900404E053E0FEF00FBF080040D3C29689
:2021A200900404E0F58222E582900405F0D297D296122062C297122062C2967F009004055A
:2021C200E020E704C2978002D297D296C007122062D007C296900405E025E0F00FBF080098
:2021E20040DBD297122062D296122062C29622E582900406F07F00900406E020E704C29701
:202202008002D297D296C007122062D007C296900406E025E0F00FBF080040DBD2971220E4
:2022220062D296122062C29622E582900409F0E025E0F0E053E0FEF0900409E044A0F58222
:202242001221A9900407E0F5821221F1900408E0F5821221F102215DE58290040AF0E044DA
:2022620001F5821221A912216AAF82C00712215DD0078F8222E58290040CF0E025E0FF748A
:20228200FE5F44A0FFF582C0071221A990040BE0F5821221F1D0078F8202225A90040D744D
:2022A200FFF0D297D296122062C297122062C2967F0090040DE0FEC297D296C007C0061225
:2022C2002062D006D007C296EE2E90040DF00FEF24F750DED297122062D296122062C29630
:2022E200227437C0E07432C0E0122571158115817471C0E07432C0E0122571158115817442
:202302009DC0E07432C0E01225711581158174CDC0E07432C0E01225711581158174EAC04B
:20232200E07432C0E0122571158115817406C0E07433C0E012257115811581122098AE8272
:20234200AF83BE4803022442BE500302255EBE5203022403BE5303022546BE54028008BE2B
:202362005702801C022565C00612214C7443C0E07433C0E012257115811581D006022565C1
:20238200C0067458C0E07433C0E0122571158115811220A6AF82D0068F047D00C007C00672
:2023A200C004C0057471C0E07433C0E0122571E58124FCF5817476C0E07433C0E0122571A9
:2023C200158115811220A6AD828D037C00C005C003C0047471C0E07433C0E0122571E58196
:2023E20024FCF581D005D006D007900407EDF0900408EFF0758200C00612222BD0060225B7
:2024020065C00674A6C0E07433C0E0122571158115811220A6AF8290040BEFF0758200122A
:202422002277AF827D00C007C00574DAC0E07433C0E0122571E58124FCF581D0060225658C
:20244200C00674FBC0E07433C0E012257115811581D0067D007F00C3EF64809481400302C8
:20246200256590040E7410F0E4A3F08D828F83C007C006C00512267AE5828583F0D005D01A
:2024820006D00745F0600302250EED4F703EC007C006C005741EC0E07434C0E0122571151D
:2024A200811581D005D006D007C007C006C005C005C0077421C0E07434C0E0122571E58118
:2024C20024FCF581D005D006D0078040C007C006C005741EC0E07434C0E012257115811503
:2024E20081D005D006D007C007C006C005C005C0077426C0E07434C0E07480C0E01227DCCE
:20250200E58124FBF581D005D006D00790040BEDF0758200C007C006C005122277AC827B23
:2025220000C004C003742AC0E07434C0E0122571E58124FCF581D005D006D0070DBD00019B
:202542000F022459C006742EC0E07434C0E01225711581158112229ED0068007C00612219F
:0F2562005DD0067F008E828F831220790222E3E4
:203237000D0A202A2A2A2A2A2A2A2A2A2A2A2A2A2A2A2A2A2A4932432046756E6374696F96
:203257006E2055736572204D656E752A2A2A2A2A2A2A2A2A2A2A2A2A2A000D0A20507265CB
:203277007373205720666F72207468652044617461206174206164647265737320746F205A
:203297007772697465000D0A205072657373205220746F20726561642074686520646174BD
:2032B70061206174206D656D6F7279206C6F636174696F6E20000D0A2050726573732048A3
:2032D70020746F207072696E74204865782044756D70000D0A205072657373205320666FE0
:2032F700722053797374656D207265736574000D0A202A2A2A2A2A2A2A2A2A2A2A2A2A2ADA
:20331700506C656173652073656C65637420746865206F7074696F6E2066726F6D206162CB
:203337006F76652A2A2A2A2A2A2A2A000D0A20493243206D6F646520656E74657265640A11
:20335700000D0A456E74657220746865206368617261637465722D3E0A000D0A2578000DDD
:203377000A456E74657220746865204164647265737320696E20486578206265747765650F
:203397006E20303020616E642066662D3E0A000D0A456E74657220746865206164647265DE
:2033B7007373206265747765656E20303020616E6420666620746F20626520526561642D94
:2033D7003E0A000D0A2044617461206F6E20746861742061646472657373206973202D3E82
:2033F700202578000D0A48657864756D70205072696E74696E672E2E2E2E2E2E2E2E2E2ED0
:203417002E2E2E2E2E2E000D0A0025783A200025783A00257820000D0A537974656D205244
:113437006573657474696E672E2E2E2E2E2E2E2E00B1
:06203500E478FFF6D8FD7F
:202013007900E94400601B7A00903453785075A004E493F2A308B8000205A0D9F4DAF27599
:02203300A0FF0C
:20257100C008858108E50824FDF8868318868218E493A324DB600C2425600512265F80F0F3
:20259100022677D2D5E493A3C083C082B4731486F01886831886821812321B6054A312264D
:2025B1005F80F5B4630818E61812265F8043B46417E630E74618E6F42401F608E6F4340012
:2025D100F6742D12265F8033B4782D868318868218E4122650E58312264FE583122650E53F
:2025F1008212264FE58212265030D505743012265FD082D083022581B475F6E6FA18E6F94A
:20261100187C107D2712263AFF7CE87D0312263AC4F5837C647D0012263A4283E975F00A72
:2026310084C445F0F582EF80A97B000BC3E99CF9EA9DFA50F61BE92CF9EA3DFAEB22C45480
:202651000F700320D51FC2D52490D43440D4C083C082C0F0F582E8C0E0122079D0E0F8D015
:09267100F0D082D08322D00822AF
:20267A00AF83E582900410F0EFA3F0900410E0FEA3E0FF30E709C3E49EFCE49FFD80048E9A
:20269A00048F0590040EE0FEA3E0FF30E709C3E49EFAE49FFB80048E028F03900412EAF083
:2026BA00EBA3F08C828D831226E2AE82AF83900410E0A3E030E70CC3E49EFCE49FFD8C82EF
:0826DA008D83228E828F832282
:2026E200AF83E582900414F0EFA3F0900416E4F0900414E0FEA3E0FF7D00900412E0FBA3FE
:20270200E0FC235401FA7036EB2BFBEC33FC900412EBF0ECA3F0900412E0FBA3E0FCC3EEE6
:202722009BEF9C5011ECC313CB13CBFC900412EBF0ECA3F080080D900416EDF080BC9004BD
:2027420016E0FF900414E0FDA3E0FE900412E0FBA3E0FCC3ED9BEE9C400B900414EDC39B69
:20276200F0EE9CA3F0900412E0FDA3E0C313CD13CDFE900412EDF0EEA3F08F061FEE70C3EA
:0C278200900414E0FEA3E08E82F5832298
:20203B007800E84400600A790075A004E4F309D8FC7850E84400600C7901900400E4F0A34C
:04205B00D8FCD9FADA
:20278E00C0088581087E008E83122079D00822AFF0AE83E582900418F0EEA3F0EFA3F090BB
:2027AE000418E0FDA3E0FEA3E0FF900417E0FC90042CE4F0A3F0A3F090042FEDF0EEA3F0AD
:2027CE00EFA3F0900432ECF090278E0228E2C008E581F50824FBFF90042CE4F0A3F0A3F073
:2027EE00E50824FBF890042FE6F008E6A3F008E6A3F0900432EFF090278E1228E2D008222C
:20280E00E582900428F0E0FF90041EE0C0E0A3E0C0E0A3E0C0E0122829800D90041CE0C000
:20282E00E0A3E0C0E08F8222158115811581900426E02401F0A3E03400F022E582900429F6
:20284E00F0E02430FF24C6500D74072FFF90041BE060034307208F8202280EE58290042A8D
:20286E00F0E0FFC4540FF582C007122849D00753070F8F82022849E58290042BF090042104
:20288E00E0FCA3E0FDA3E0FEA3E0FF900425E0FB90042BE0FA79208B00E828F513EF2354FC
:2028AE00014513FBEC2CFCED33FDEE33FEEF33FFC3EB9A4007EBC39AFB43040119E970D7E2
:2028CE00900421ECF0EDA3F0EEA3F0EFA3F0900425EBF022AF83E582900433F0EFA3F090BE
:2028EE000433E0FEA3E0FF90041CEEF0EFA3F090042CE0FDA3E0FEA3E0FF90041EEDF0EE06
:20290E00A3F0EFA3F0900426E4F0A3F090042FE0FDA3E0FEA3E0FF8D828E838FF012321BD2
:20292E00FC90042F74012DF0E43EA3F0EFA3F0EC70030231D7BC250280030231CF90043567
:20294E00E4F0900436F0900437F0900438F0900439F090043AF090043BF090043CF09004D6
:20296E003EF090043FF0A3F090044114F0A3F090042FE0FDA3E0FEA3E0FF8D828E838FF017
:20298E0012321BFBA3AD82AE8390042FEDF0EEA3F0EFA3F0900445EBF0BB25088B82122846
:2029AE000E02291ABB30005003022A7BEB24C65003022A7B900441E0F509A3E0F50A74FF5A
:2029CE00B50963B50A60C005C006C00790043FE0FAA3E0FF90044EEAF0EFA3F090000AC090
:2029EE0005C0031231FBAE82AF83D003D0058B027D00EA2EFEED3FFFEE24D0FEEF34FFFF6D
:202A0E0090043FEEF0EFA3F0D007D006D00590043FE0F5F0A3E045F06003022988900436C3
:202A2E007401F0022988C005C006C00790044EE509F0E50AA3F090000AC006C005C00312E2
:202A4E0031FBAA82AF83D003D005D0067E00EB2AFAEE3FFFEA24D0FAEF34FFFF900441EAEF
:202A6E00F0EFA3F0D007D006D005022988900445E0FBBB2E2FC005C006C007900441E0FAD4
:202A8E00A3E0FFBAFF05BFFF028009D007D006D005022988D007D006D005900441E4F0A39C
:202AAE00F0022988BB61004014EB2485400F90044574DF5BF090041B7401F0800590041B53
:202ACE00E4F0900445E0FBBB20028075BB2B028067BB2D028059BB4202806FBB4302807C12
:202AEE00BB4403022D72BB4603022D98BB4803022988BB4903022D72BB4A03022988BB4C37
:202B0E00028050BB4F03022D80BB5003022CE0BB53028077BB5403022988BB5503022D8867
:202B2E00BB5803022D90BB5A03022988022DA09004357401F00229889004377401F00229DC
:202B4E00889004387401F002298890043A7401F002298890043B7401F002298890043AE080
:202B6E00600E900432E014F9F0900445E7F0800F900432E024FEFFF08F01900445E7F09070
:202B8E000445E0F58212280E022DAF900432E024FDFFF08F018705098706098707191990A0
:202BAE000421EDF0EEA3F0EFA3F08D828E838FF01231E385820985830A900441E0FAA3E0E9
:202BCE00FDBAFF0DBDFF0A900441E509F0E50AA3F0900435E0704B90043FE0FAA3E0FDC3D5
:202BEE00E5099AE50A9D503A90043FEAC39509F0ED950AA3F090043FE0FAA3E0FD8A068DB2
:202C0E00071ABAFF011DEE4F6010758220C005C00212280ED002D00580E390043FEAF0ED77
:202C2E00A3F0900441E0F50CA3E0F50D900421E0FAA3E0FDA3E0FF8A828D838FF012321B2D
:202C4E00F50B603CC3E4950C7480850DF063F08095F0502C150C74FFB50C02150D850B82AD
:202C6E0012280E900421E0FAA3E0FDA3E0FF0ABA00010D900421EAF0EDA3F0EFA3F080ACDE
:202C8E00900435E07003022DAF90043FE0FEA3E0FFC3E5099EE50A9F4003022DAF90043F28
:202CAE00EEC39509F0EF950AA3F090043FE0FEA3E0FF8E028F051EBEFF011FEA4D700302A8
:202CCE002DA7758220C007C00612280ED006D00780E0900432E024FDFDF08D01870E0987B2
:202CEE000F0987101919900421E50EF0E50FA3F0E510A3F0900423E0FDBD80004008900491
:202D0E00457443F08020BD600040089004457450F08013BD400040089004457449F0800643
:202D2E009004457458F0900445E0FDF582C00512280E75823A12280E75823012280E7582D7
:202D4E007812280ED005BD4902800EBD50028009900422E0F582122869900421E0F58212D4
:202D6E002869803D9004397401F090043E740AF0802F90043E7408F0802790043E740AF0B1
:202D8E00801F90043E7410F0801790043C7401F0800F8B8212280E800890043FEEF0EFA3C5
:202DAE00F090043CE06071900432E024FCFFF08F0187030987050987060987071919199028
:202DCE000421EBF0EDA3F0EEA3F0EFA3F09004217448F07434A3F07480A3F0900421E0F5B5
:202DEE000EA3E0F50FA3E0F5107401250EFAE4350FFBAF10900421EAF0EBA3F0EFA3F08510
:202E0E000E82850F838510F012321BFF700302291A8F8212280E80C390043EE07003022976
:202E2E001A90043AE06047900432E014F9F087077E007D007B00900421EFF0EEA3F0EDA3C9
:202E4E00F0EBA3F0900439E06003022EF2900421E0FBA3E0A3E0A3E07D007E007F0090049D
:202E6E0021EBF0EDA3F0EEA3F0EFA3F0807690043BE06028900432E024FCFFF08F018703C9
:202E8E00098705098706098707191919900421EBF0EDA3F0EEA3F0EFA3F08048900432E096
:202EAE0024FEFFF08F01870609870719EF3395E0FDFB900421EEF0EFA3F0EDA3F0EBA3F084
:202ECE00900439E0701E900421E0FBA3E0FDA3E0A3E07E007F00900421EBF0EDA3F0EEA3F5
:202EEE00F0EFA3F0900439E06041900421E0FBA3E0FDA3E0FEA3E0FF30E72B900421E0FB1F
:202F0E00A3E0FDA3E0FEA3E0FFC3E49BFBE49DFDE49EFEE49FFF900421EBF0EDA3F0EEA3C2
:202F2E00F0EFA3F08005900439E4F090043D7401F090043EE0F50C75114B751204E4F509C4
:202F4E00F50A900425E4F0850C8212288590043DE07026900425E0C4F50E8511828512832C
:202F6E00E0FFE50E4207851182851283EFF0151174FFB511021512800C900425E0FF8511D5
:202F8E0082851283F00509E4B50902050A90043DE0B40100E433F0900421E0FAA3E0FBA3B9
:202FAE00E0FEA3E0FFEA4B4E4F709790044CE511F0E512A3F0900443E509F0E50AA3F090B3
:202FCE00043FE0F5F0A3E045F0700990043F7401F0E4A3F0900436E0FFE07047900435E012
:202FEE007041850911850A1290043FE0FAA3E0FBC007AF110F8F067F00C3EE9AEF9BD00751
:20300E005019758220C007C003C00212280ED002D003D0071ABAFF011B80D590043FEAF021
:20302E00EBA3F0900439E0602075822DC00712280ED00790043FE024FFFDA3E034FFFE90B6
:20304E00043FEDF0EEA3F08056900443E0F5F0A3E045F0604A900437E0602075822BC007D9
:20306E0012280ED00790043FE024FFFDA3E034FFFE90043FEDF0EEA3F08024900438E060BB
:20308E001E758220C00712280ED00790043FE024FFFDA3E034FFFE90043FEDF0EEA3F090BF
:2030AE000435E07048900443E0F511A3E0F51290043FE0FAA3E0FBC0078A068B071ABAFF03
:2030CE00011BC3E5119EE5129FD0075053EF60067D307E0080047D207E008D82C007C003A7
:2030EE00C00212280ED002D003D00780CA90043FE0FEA3E0FF900443E0F511A3E0F512C3B5
:20310E00E5119EE5129F500F90043FEEC39511F0EF9512A3F0801190043FE4F0A3F0800882
:20312E0090043FEAF0EBA3F090044CE0FEA3E0FF900443E0F511A3E0F512AA11AD1215112F
:20314E0074FFB511021512EA4D604590043DE0B40100E433F090043DE070140EBE00010FA5
:20316E008E828F83E0C4540FFD900425F0800E8E828F83E0FD53050F900425EDF09004252F
:20318E00E0F582C007C006122849D006D00780AA900435E0700302291A90043FE0FEA3E04E
:2031AE00FF8E038F051EBEFF011FEB4D700302291A758220C007C00612280ED006D00780D9
:1531CE00E08C8212280E02291A900426E0FEA3E08E82F58322AC
:0B3448003C4E4F20464C4F41543E00CC
:1831E300AA82AB8312321B6003A380F8C3E5829AF582E5839BF58322C5
:2031FB00AA83AB828BF090044EE0A4F8A9F08AF0E0A429F98BF0A3E0A429F5838882222237
:0D200600758113122072E582600302200331
:1C321B0020F71430F6148883A88220F507E6A88375830022E280F7E49322E022C2
:00000001FF
