:0400000002001132B7
:03000B000203CB22
:03006A0002000E83
:03000E0002060BDC
:20006D00438E0C90000022AF83E582900401F0EFA3F03099FD900401E0FEA3E0FF8E99C2A0
:20008D00998E828F832210980280FBAE997F008E828F8322AF83E582900403F0EFA3F09015
:2000AD000403E0FEA3E0FF7C007D00C3EC9EED64808FF063F08095F0501D7A007B00C3EACF
:2000CD009452EB6480948050070ABA00F10B80EE0CBC00D70D80D422C294D295908000E0F6
:2000ED00547FF58222C294C2959000A01200A19080007430F09000AA1200A19080007430B2
:20010D00F09000961200A19080007430F0120168C294C2959080007438F0120168C294C2FE
:20012D0095908000740FF0120168C294C2959080007401F0120168C294C29590800074064B
:20014D00F01201689004667430F0900467F0900468F0900469F090046AF022C294D2959078
:20016D008000E020E7F922E582900405F0C294C295900405E043E080F0900405E0908000BE
:20018D00F0020168E582900407F0E0FFBF3007900408E4F0801CBF31089004087440F0806C
:2001AD0011BF32089004087410F080069004087450F0900407E0FF24CD5019900406E0FFF5
:2001CD00BF4100400FEF24B9400A900408E043E008F0803B900406E0FFBF41004013EF247C
:2001ED00B9400E8F06EE24C9FE900408E04EF0801EBF30004011EF24C6400CEF24D0FF904E
:20020D000408E04FF08008900408E043E008F0900408E0F582120174020168E5829004099E
:20022D00F01200E5AF82BF0F1BD294C295900409E0908000F01201689004067430F07582D6
:20024D00310201911200E5AF82BF4F1BD294C295900409E0908000F0120168900406743088
:20026D00F07582320201911200E5AF82BF1F1BD294C295900409E0908000F012016890045A
:20028D00067430F07582330201911200E5AF82BF581BD294C295900409E0908000F0120152
:2002AD00689004067430F0758230020191D294C295900409E0908000F0020168AFF0AE836B
:2002CD00E58290040AF0EEA3F0EFA3F090040AE0FDA3E0FEA3E0FF7B007C00EB2DF8EC3E6A
:2002ED00F98F02888289838AF0121889FA60208A82C007C006C005C004C003120228D003B6
:20030D00D004D005D006D0070BBB00CF0C80CC22C294C2959080007401F0120168758200D7
:20032D001201749018A575F0801202C9758200020174120093120074AE82C00612009312D4
:20034D000074AD82D006E4BE300104FF700DBE31028008BE34028003BE351FBD3000401A7B
:20036D00ED24C640158E04EC24D0C454F0FC8D03EB24D090040D2CF0803DEF700DBE310288
:20038D008008BE34028003BE351BBD41004016ED24B94011EE24D0C454F0FEED24C990047E
:2003AD000D2EF0801274ADC0E07418C0E0120BDF1581158112033F90040DE0F58222C0210F
:2003CD00C0E0C0F0C082C083C007C006C005C004C003C002C001C000C0D075D0001200E553
:2003ED00E582900400F0900464E0FEA3E0FFBE1E12BF000FB291900464E4F0A3F090046655
:20040D00E004F0900464E0FEA3E0FF90046474012EF0E43FA3F0C28D758A00758CF075822C
:20042D005912017490046AE0F582120228900469E0F58212022875823A120228900468E065
:20044D00F582120228900467E0F58212022875822E120228900466E0F58212022890046666
:20046D00E0FFBF3A4A9004667430F0900467E004F0E0FFBF3A399004677430F0900468E074
:20048D0004F0E0FFBF36289004687430F0900469E004F0E0FFBF3A179004697430F09004EA
:2004AD006AE004F0E0FFBF360690046A7430F0900400E0F582120174D0D0D000D001D00200
:2004CD00D003D004D005D006D007D083D082D0F0D0E0D021325388CF758901758A00758C05
:2004ED00F075A88243881022759852758920758DFDD28E22E58290040FF0E0FFBF010B9031
:20050D00040EE0F582120174800FC294C29590040EE0908000F0120168D294D295908000C8
:20052D00E0F58222E582900413F0E024D0C40354F8FF4307408F057E00C007C006C005C0A3
:20054D0005C00674E6C0E07418C0E07480C0E0120E4AE58124FBF581D005D006D00790048E
:20056D0010E0F508A3E0F509A3E0F50A78007900C3E89408E9648094805071C294C295886F
:20058D00048F03908000EC2BF0E82DFBE93EFCC007C006C005C001C000C003C0047403C0DD
:2005AD00E07419C0E07480C0E0120E4AE58124FBF581120168D000D001D294C295E825083A
:2005CD00FAE93509FBAC0A8A828B838CF0121889908000F0C001C000120168D000D001D086
:2005ED0005D006D00708B800870980849004067434F07582301201917582000202281204B2
:20060D00F51200F21204E27411C0E07419C0E0120BDF158115817430C0E07419C0E0120BD4
:20062D00DF15811581120093AE828E057F00C006C005C0077447C0E07419C0E0120BDFE500
:20064D008124FCF581D006BE2302803FBE420302089ABE4303020784BE450302088EBE4822
:20066D000302090FBE4A0302071EBE4F0302087DBE5103020AE3BE5203020894BE530302BF
:20068D0007C8BE5803020745020614D20010AF02C200744CC0E07419C0E0120BDF15811572
:2006AD0081747EC0E07419C0E0120BDF1581158174ACC0E07419C0E0120BDF15811581743C
:2006CD00D7C0E07419C0E0120BDF1581158174F0C0E07419C0E0120BDF15811581741BC099
:2006ED00E0741AC0E0120BDF15811581743CC0E0741AC0E0120BDF15811581746DC0E0741C
:20070D001AC0E0120BDF15811581A20092AF02061474A4C0E0741AC0E0120BDF15811581DD
:20072D0012033FAF82D20010AF02C2008F82120174A20092AF02061474CAC0E0741AC0E02F
:20074D00120BDF15811581120093120074AE82C00674D8C0E0741AC0E0120BDF1581158101
:20076D00120093120074AD82D006900406EDF08E8212019102061474E9C0E0741AC0E012B8
:20078D000BDF15811581120093AE828E057F00C006C005C0077447C0E07419C0E0120BDF79
:2007AD00E58124FCF581D006D20010AF02C2008E82120228A20092AF020614740DC0E07425
:2007CD001BC0E0120BDF158115819004177401F0E4A3F0900414E0F50BA3E0F50CA3E0F51E
:2007ED000D7B007C00900417E0F5F0A3E045F06051C004C003120093A98289007A00C001F4
:20080D00C000C002742EC0E0741BC0E0120BDFE58124FCF581D001D003D004B90D09900405
:20082D0017E4F0A3F080BEEB250BF8EC350CFAAF0D88828A838FF0E9120BC40BBB00A60C21
:20084D0080A3EB250BFBEC350CFCAF0D8B828C838FF0E4120BC4D20010AF02C200850B82A6
:20086D00850C83850DF01202C9A20092AF020614D20010AF02C20012031DA20092AF020687
:20088D00145388EF020614438810020614D20010AF02C2001200E5E582900400F090046629
:2008AD007430F0900467F0900468F0900469F090046AF075825912017490046AE0F58212A7
:2008CD000228900469E0F58212022875823A120228900468E0F582120228900467E0F58203
:2008ED0012022875822E120228900466E0F582120228900400E0F582120174A20092AF026A
:20090D000614D20010AF02C2001200E5E582900400F07431C0E0741BC0E0120BDF1581155E
:20092D0081900417E4F0A3F0900417E0FEA3E0FFBE100EBF000B9004177440F0E4A3F08020
:20094D0020BE500EBF000B9004177410F0E4A3F0800FBE200CBF00099004177450F0E4A3C7
:20096D00F0900417E0FEA3E0FF9004227410F0E4A3F08E828F83C007C006120CE8E582852D
:20098D0083F0D006D00745F07019C006C007744FC0E0741BC0E07480C0E0120E4AE58124C5
:2009AD00FBF581900417E0FEA3E0FF90040EEEF0758201C007C006120501AD827C00C00521
:2009CD00C004745AC0E0741BC0E07480C0E0120E4AE58124FBF581D006D0079004177401E3
:2009ED002EF0E43FA3F0900417E0FEA3E0FFC3745F9E74808FF063F08095F0400302093589
:200A0D007462C0E0741BC0E07480C0E0120E4A1581158115817465C0E0741BC0E0120BDFC0
:200A2D00158115817E407F009004227410F0E4A3F08E828F83C007C006120CE8E58285837B
:200A4D00F0D006D00745F07021C007C006C006C007744FC0E0741BC0E07480C0E0120E4A7C
:200A6D00E58124FBF581D006D00790040EEEF0758200C007C006120501AD827C00C005C075
:200A8D0004745AC0E0741BC0E07480C0E0120E4AE58124FBF581D006D0070EBE00010FC363
:200AAD00747F9E74808FF063F08095F04003020A357462C0E0741BC0E07480C0E0120E4AA6
:200ACD00158115811581900400E0F582120174A20092AF0206141200E5E582900400F07480
:200AED0083C0E0741BC0E0120BDF1581158174A8C0E0741BC0E0120BDF15811581120093B7
:200B0D00AE828E057F00C006C005C0077447C0E07419C0E0120BDFE58124FCF58174BFC0C1
:200B2D00E0741BC0E0120BDF15811581D0067D007F00C007C006C005C005C00774D4C0E0D9
:200B4D00741BC0E07480C0E0120E4AE58124FBF581D005D006D007ED2419FBEF3404FCC0D6
:200B6D0007C006C005C004C00312033FAA82D003D004D005D006D0078B828C83EAF00DBDE6
:200B8D0000010FC3ED9408EF6480948040A4D20010AF02C2009004107419F07404A3F0E4BC
:170BAD00A3F08E82120531900400E0F582120174A20092AF020614D5
:2018A50020202020202020000A0D456E7465722076616C696420696E7075742062657477DC
:2018C50065656E2028303020746F20314629206F722028343020746F203538293A200A0D89
:2018E500000A0D637573746F6D20636861726163746572206E756D626572202578000A0DE7
:201905006C63645F7074723D202578000A0A0D5072657373202320666F7220746F2073650D
:201925006520746865206D656E75000A0A0D456E74657220612063686F6963653A20202042
:20194500200025630A0D002A2A2A2A2A2A2A2A2A2A2A2A2A455344204C41422034205061B1
:2019650072742032204D656E752A2A2A2A2A2A2A2A2A2A2A2A2A2A2A000A0D5072657373DB
:20198500204320746F207072696E74206465736972656420636861726163746572206F6EC5
:2019A500204C43440A0D000A0D5072657373205320746F207072696E742064657369726595
:2019C5006420737472696E67206F6E204C43440A0D000A0D5072657373204F20746F2063C7
:2019E5006C656172204C43440A0D000A0D5072657373204520746F2073746F702074686561
:201A050020656C61707365642074696D6520636C6F636B0A0D000A0D5072657373205220FB
:201A2500746F20726573746172742074686520636C6F636B0A0D000A0D507265737320426F
:201A450020746F2072657365742074686520636C6F636B206261636B20746F202730303A19
:201A650030302E30270A0D000A0D2A2A2A2A2A2A2A2A2A2A2A2A2A2A2A2A2A2A2A2A2A2AB2
:201A85002A2A2A2A2A2A2A2A2A2A2A2A2A2A2A2A2A2A2A2A2A2A2A2A2A2A2A2A0A0D000A88
:201AA5000D456E746572206164647265737320776974686F757420707265666978202730B7
:201AC50078273A20000A0D456E74657220726F773A20000A0D456E74657220636F6C756DCC
:201AE5006E3A20000A0D456E7465722063686172616374657220746F207072696E74206F58
:201B05006E204C43443A20000A0D456E74657220737472696E6720746F207072696E7420C9
:201B25006F6E204C43443A20002563000A0D5072696E74696E672048657864756D70206F02
:201B45006620444452414D0A0D000A0D3078253032783A200030782530327820000A0D0085
:201B65000A0D5072696E74696E672048657864756D70206F6620434752414D0A0D000A0D56
:201B850043726561746520796F7572206F776E20637573746F6D2063686172616374657201
:201BA5000A0D00456E7465722063686172616374657220636F64653A20000A0D456E746586
:201BC5007220726F772076616C7565733A20000A0D456E746572206E6F2E20256420726F22
:0A1BE500772076616C75653A2000E8
:071BFA0000003030303030F4
:06004000E478FFF6D8FD94
:20001E007907E94400601B7A01901BFA786475A004E493F2A308B8000205A0D9F4DAF27504
:02003E00A0FF21
:1B0BC40020F71130F6138883A88220F509F6A8837583002280FEF280F5F02230
:200BDF00C00E85810EE50E24FDF8868318868218E493A324DB600C24256005120CCD80F039
:200BFF00020CE5D2D5E493A3C083C082B4731486F0188683188682181218896054A3120C6B
:200C1F00CD80F5B4630818E618120CCD8043B46417E630E74618E6F42401F608E6F43400FB
:200C3F00F6742D120CCD8033B4782D868318868218E4120CBEE583120CBDE583120CBEE59A
:200C5F0082120CBDE582120CBE30D5057430120CCDD082D083020BEFB475F6E6FA18E6F9A5
:200C7F00187C107D27120CA8FF7CE87D03120CA8C4F5837C647D00120CA84283E975F00A22
:200C9F0084C445F0F582EF80A97B000BC3E99CF9EA9DFA50F61BE92CF9EA3DFAEB22C4542C
:200CBF000F700320D51FC2D52490D43440D4C083C082C0F0F582E8C0E0120074D0E0F8D0E6
:090CDF00F0D082D08322D00E2255
:200CE800AF83E582900424F0EFA3F0900424E0FEA3E0FF30E709C3E49EFCE49FFD80048E1E
:200D0800048F05900422E0FEA3E0FF30E709C3E49EFAE49FFB80048E028F03900426EAF006
:200D2800EBA3F08C828D83120D50AE82AF83900424E0A3E030E70CC3E49EFCE49FFD8C8231
:080D48008D83228E828F83222D
:200D5000AF83E582900428F0EFA3F090042AE4F0900428E0FEA3E0FF7D00900426E0FBA359
:200D7000E0FC235401FA7036EB2BFBEC33FC900426EBF0ECA3F0900426E0FBA3E0FCC3EE6A
:200D90009BEF9C5011ECC313CB13CBFC900426EBF0ECA3F080080D90042AEDF080BC900441
:200DB0002AE0FF900428E0FDA3E0FE900426E0FBA3E0FCC3ED9BEE9C400B900428EDC39BC5
:200DD000F0EE9CA3F0900426E0FDA3E0C313CD13CDFE900426EDF0EEA3F08F061FEE70C36E
:0C0DF000900428E0FEA3E08E82F5832230
:200046007800E84400600A790075A004E4F309D8FC7864E84400600C7901900400E4F0A34D
:04006600D8FCD9FAEF
:200DFC00C00E85810E7E008E83120074D00E22AFF0AE83E58290042CF0EEA3F0EFA3F09066
:200E1C00042CE0FDA3E0FEA3E0FF90042BE0FC900440E4F0A3F0A3F0900443EDF0EEA3F008
:200E3C00EFA3F0900446ECF0900DFC020F50C00EE581F50E24FBFF900440E4F0A3F0A3F041
:200E5C00E50E24FBF8900443E6F008E6A3F008E6A3F0900446EFF0900DFC120F50D00E22FA
:200E7C00E58290043CF0E0FF900432E0C0E0A3E0C0E0A3E0C0E0120E97800D900430E0C01C
:200E9C00E0A3E0C0E08F822215811581158190043AE02401F0A3E03400F022E58290043D7A
:200EBC00F0E02430FF24C6500D74072FFF90042FE060034307208F82020E7CE58290043EBD
:200EDC00F0E0FFC4540FF582C007120EB7D00753070F8F82020EB7E58290043FF0900435E0
:200EFC00E0FCA3E0FDA3E0FEA3E0FF900439E0FB90043FE0FA79208B00E828F519EF23547A
:200F1C00014519FBEC2CFCED33FDEE33FEEF33FFC3EB9A4007EBC39AFB43040119E970D787
:200F3C00900435ECF0EDA3F0EEA3F0EFA3F0900439EBF022AF83E582900447F0EFA3F0902D
:200F5C000447E0FEA3E0FF900430EEF0EFA3F0900440E0FDA3E0FEA3E0FF900432EDF0EE61
:200F7C00A3F0EFA3F090043AE4F0A3F0900443E0FDA3E0FEA3E0FF8D828E838FF012188902
:200F9C00FC90044374012DF0E43EA3F0EFA3F0EC7003021845BC2502800302183D90044941
:200FBC00E4F090044AF090044BF090044CF090044DF090044EF090044FF0900450F09004F6
:200FDC0052F0900453F0A3F090045514F0A3F0900443E0FDA3E0FEA3E0FF8D828E838FF073
:200FFC00121889FBA3AD82AE83900443EDF0EEA3F0EFA3F0900459EBF0BB25088B82120E90
:20101C007C020F88BB300050030210E9EB24C650030210E9900455E0F50FA3E0F51074FF7B
:20103C00B50F63B51060C005C006C007900453E0FAA3E0FF900462EAF0EFA3F090000AC007
:20105C0005C003121869AE82AF83D003D0058B027D00EA2EFEED3FFFEE24D0FEEF34FFFFC3
:20107C00900453EEF0EFA3F0D007D006D005900453E0F5F0A3E045F06003020FF690044ADF
:20109C007401F0020FF6C005C006C007900462E50FF0E510A3F090000AC006C005C003121A
:2010BC001869AA82AF83D003D005D0067E00EB2AFAEE3FFFEA24D0FAEF34FFFF900455EA32
:2010DC00F0EFA3F0D007D006D005020FF6900459E0FBBB2E2FC005C006C007900455E0FA04
:2010FC00A3E0FFBAFF05BFFF028009D007D006D005020FF6D007D006D005900455E4F0A3E0
:20111C00F0020FF6BB61004014EB2485400F90045974DF5BF090042F7401F0800590042F6E
:20113C00E4F0900459E0FBBB20028075BB2B028067BB2D028059BB4202806FBB4302807CA9
:20115C00BB44030213E0BB4603021406BB4803020FF6BB49030213E0BB4A03020FF6BB4C3D
:20117C00028050BB4F030213EEBB500302134EBB53028077BB5403020FF6BB55030213F6C2
:20119C00BB58030213FEBB5A03020FF602140E9004497401F0020FF690044B7401F0020F29
:2011BC00F690044C7401F0020FF690044E7401F0020FF690044F7401F0020FF690044EE072
:2011DC00600E900446E014F9F0900459E7F0800F900446E024FEFFF08F01900459E7F090CC
:2011FC000459E0F582120E7C02141D900446E024FDFFF08F0187050987060987071919907B
:20121C000435EDF0EEA3F0EFA3F08D828E838FF012185185820F858310900455E0FAA3E00B
:20123C00FDBAFF0DBDFF0A900455E50FF0E510A3F0900449E0704B900453E0FAA3E0FDC338
:20125C00E50F9AE5109D503A900453EAC3950FF0ED9510A3F0900453E0FAA3E0FD8A068D1D
:20127C00071ABAFF011DEE4F6010758220C005C002120E7CD002D00580E3900453EAF0EDBB
:20129C00A3F0900455E0F512A3E0F513900435E0FAA3E0FDA3E0FF8A828D838FF012188951
:2012BC00F511603CC3E4951274808513F063F08095F0502C151274FFB5120215138511822F
:2012DC00120E7C900435E0FAA3E0FDA3E0FF0ABA00010D900435EAF0EDA3F0EFA3F080AC0E
:2012FC00900449E0700302141D900453E0FEA3E0FFC3E50F9EE5109F400302141D900453E2
:20131C00EEC3950FF0EF9510A3F0900453E0FEA3E0FF8E028F051EBEFF011FEA4D70030233
:20133C001415758220C007C006120E7CD006D00780E0900446E024FDFDF08D01871409879A
:20135C00150987161919900435E514F0E515A3F0E516A3F0900437E0FDBD800040089004F6
:20137C00597443F08020BD600040089004597450F08013BD400040089004597449F08006B3
:20139C009004597458F0900459E0FDF582C005120E7C75823A120E7C758230120E7C75825F
:2013BC0078120E7CD005BD4902800EBD50028009900436E0F582120ED7900435E0F58212B0
:2013DC000ED7803D90044D7401F0900452740AF0802F9004527408F08027900452740AF0B9
:2013FC00801F9004527410F080179004507401F0800F8B82120E7C8008900453EEF0EFA3E1
:20141C00F0900450E06071900446E024FCFFF08F01870309870509870609870719191990AB
:20143C000435EBF0EDA3F0EEA3F0EFA3F090043574EFF0741BA3F07480A3F0900435E0F596
:20145C0014A3E0F515A3E0F51674012514FAE43515FBAF16900435EAF0EBA3F0EFA3F08583
:20147C0014828515838516F0121889FF7003020F888F82120E7C80C3900452E07003020F1A
:20149C008890044EE06047900446E014F9F087077E007D007B00900435EFF0EEA3F0EDA3CB
:2014BC00F0EBA3F090044DE06003021560900435E0FBA3E0A3E0A3E07D007E007F009004CC
:2014DC0035EBF0EDA3F0EEA3F0EFA3F0807690044FE06028900446E024FCFFF08F01870339
:2014FC00098705098706098707191919900435EBF0EDA3F0EEA3F0EFA3F08048900446E01A
:20151C0024FEFFF08F01870609870719EF3395E0FDFB900435EEF0EFA3F0EDA3F0EBA3F01B
:20153C0090044DE0701E900435E0FBA3E0FDA3E0A3E07E007F00900435EBF0EDA3F0EEA364
:20155C00F0EFA3F090044DE06041900435E0FBA3E0FDA3E0FEA3E0FF30E72B900435E0FB8E
:20157C00A3E0FDA3E0FEA3E0FFC3E49BFBE49DFDE49EFEE49FFF900435EBF0EDA3F0EEA35A
:20159C00F0EFA3F0800590044DE4F09004517401F0900452E0F51275175F751804E4F50F08
:2015BC00F510900439E4F0851282120EF3900451E07026900439E0C4F5148517828518832A
:2015DC00E0FFE5144207851782851883EFF0151774FFB517021518800C900439E0FF851743
:2015FC0082851883F0050FE4B50F020510900451E0B40100E433F0900435E0FAA3E0FBA325
:20161C00E0FEA3E0FFEA4B4E4F7097900460E517F0E518A3F0900457E50FF0E510A3F0901E
:20163C000453E0F5F0A3E045F070099004537401F0E4A3F090044AE0FFE07047900449E06D
:20165C007041850F17851018900453E0FAA3E0FBC007AF170F8F067F00C3EE9AEF9BD007CA
:20167C005019758220C007C003C002120E7CD002D003D0071ABAFF011B80D5900453EAF065
:20169C00EBA3F090044DE0602075822DC007120E7CD007900453E024FFFDA3E034FFFE90E6
:2016BC000453EDF0EEA3F08056900457E0F5F0A3E045F0604A90044BE0602075822BC00749
:2016DC00120E7CD007900453E024FFFDA3E034FFFE900453EDF0EEA3F0802490044CE060D7
:2016FC001E758220C007120E7CD007900453E024FFFDA3E034FFFE900453EDF0EEA3F090EF
:20171C000449E07048900457E0F517A3E0F518900453E0FAA3E0FBC0078A068B071ABAFF66
:20173C00011BC3E5179EE5189FD0075053EF60067D307E0080047D207E008D82C007C00346
:20175C00C002120E7CD002D003D00780CA900453E0FEA3E0FF900457E0F517A3E0F518C3D8
:20177C00E5179EE5189F500F900453EEC39517F0EF9518A3F08011900453E4F0A3F08008EE
:20179C00900453EAF0EBA3F0900460E0FEA3E0FF900457E0F517A3E0F518AA17AD18151781
:2017BC0074FFB517021518EA4D6045900451E0B40100E433F0900451E070140EBE00010F1D
:2017DC008E828F83E0C4540FFD900439F0800E8E828F83E0FD53050F900439EDF09004399F
:2017FC00E0F582C007C006120EB7D006D00780AA900449E07003020F88900453E0FEA3E02A
:20181C00FF8E038F051EBEFF011FEB4D7003020F88758220C007C006120E7CD006D00780DC
:15183C00E08C82120E7C020F8890043AE0FEA3E08E82F583229B
:0B1BEF003C4E4F20464C4F41543E003E
:18185100AA82AB831218896003A380F8C3E5829AF582E5839BF583221C
:20186900AA83AB828BF0900462E0A4F8A9F08AF0E0A429F98BF0A3E0A429F58388822222CE
:0D00110075812112006DE582600302000E72
:1C18890020F71430F6148883A88220F507E6A88375830022E280F7E49322E0226E
:00000001FF
