:03000000020006F5
:03005F0002000399
:030003000200E414
:10006200438E0C90000022AF83E582900001F0EFF6
:10007200A3F0900001E0FEA3E0FF7C007D00C3EC52
:100082009EED64808FF063F08095F0501D7A007BC6
:1000920000C3EA9464EB6480948050070ABA00F1CA
:1000A2000B80EE0CBC00D70D80D422AF83E582908A
:1000B2000003F0EFA3F03099FD900003E0FEA3E00F
:1000C200FF8E99C2998E828F832210980280FBAE96
:1000D200997F008E828F8322E582900005F0E0F501
:1000E200C52275C3F2D293C2927582761200DA905B
:1000F20000011200697582401200DA7440C0E07497
:1001020076C0E074CAC0E0740BC0E07480C0E01234
:0F011200016FE58124FBF581D292C293D2932233
:0D0BCA006D6573736167653D25780A0D0048
:06003500E478FFF6D8FD9F
:100013007900E94400601B7A00900BE2783F75A0F9
:1000230000E493F2A308B8000205A0D9F4DAF2754C
:02003300A0FF2C
:10003B007800E84400600A790175A000E4F309D860
:10004B00FC783EE84400600C7901900001E4F0A3D9
:04005B00D8FCD9FAFA
:10012100C0128581127E008E831200ADD01222AFE3
:10013100F0AE83E582900007F0EEA3F0EFA3F0901C
:100141000007E0FDA3E0FEA3E0FF900006E0FC90C5
:10015100001BE4F0A3F0A3F090001EEDF0EEA3F07D
:10016100EFA3F0900021ECF0900121020275C01282
:10017100E581F51224FBFF90001BE4F0A3F0A3F04E
:10018100E51224FBF890001EE6F008E6A3F008E66D
:10019100A3F0900021EFF0900121120275D01222FC
:1001A100E582900017F0E0FF90000DE0C0E0A3E0D1
:1001B100C0E0A3E0C0E01201BC800D90000BE0C0E4
:1001C100E0A3E0C0E08F82221581158115819000A6
:1001D10015E02401F0A3E03400F022E5829000183C
:1001E100F0E02430FF24C6500D74072FFF90000A61
:1001F100E060034307208F820201A1E5829000198C
:10020100F0E0FFC4540FF582C0071201DCD00753A0
:10021100070F8F820201DCE58290001AF090001036
:10022100E0FCA3E0FDA3E0FEA3E0FF900014E0FBEF
:1002310090001AE0FA79208B00E828F513EF235497
:10024100014513FBEC2CFCED33FDEE33FEEF33FFE8
:10025100C3EB9A4007EBC39AFB43040119E970D73A
:10026100900010ECF0EDA3F0EEA3F0EFA3F09000FE
:1002710014EBF022AF83E582900022F0EFA3F0901F
:100281000022E0FEA3E0FF90000BEEF0EFA3F09060
:10029100001BE0FDA3E0FEA3E0FF90000DEDF0EEFA
:1002A100A3F0EFA3F0900015E4F0A3F090001EE09E
:1002B100FDA3E0FEA3E0FF8D828E838FF0120BAED3
:1002C100FC90001E74012DF0E43EA3F0EFA3F0ECCE
:1002D1007003020B6ABC25028003020B62900024AA
:1002E100E4F0900025F0900026F0900027F09000B7
:1002F10028F0900029F090002AF090002BF0900057
:100301002DF090002EF0A3F090003014F0A3F090A7
:10031100001EE0FDA3E0FEA3E0FF8D828E838FF03F
:10032100120BAEFBA3AD82AE8390001EEDF0EEA3E7
:10033100F0EFA3F0900034EBF0BB25088B821201A3
:10034100A10202ADBB3000500302040EEB24C650E3
:100351000302040E900030E0F508A3E0F50974FFF4
:10036100B50863B50960C005C006C00790002EE05E
:10037100FAA3E0FF90003DEAF0EFA3F090000AC07D
:1003810005C003120B8EAE82AF83D003D0058B0262
:100391007D00EA2EFEED3FFFEE24D0FEEF34FFFF9D
:1003A10090002EEEF0EFA3F0D007D006D00590001C
:1003B1002EE0F5F0A3E045F0600302031B90002559
:1003C1007401F002031BC005C006C00790003DE5A3
:1003D10008F0E509A3F090000AC006C005C00312A9
:1003E1000B8EAA82AF83D003D005D0067E00EB2A04
:1003F100FAEE3FFFEA24D0FAEF34FFFF900030EA33
:10040100F0EFA3F0D007D006D00502031B90003413
:10041100E0FBBB2E2FC005C006C007900030E0FAFC
:10042100A3E0FFBAFF05BFFF028009D007D006D0C5
:100431000502031BD007D006D005900030E4F0A3DD
:10044100F002031BBB61004014EB2485400F9000B8
:100451003474DF5BF090000A7401F0800590000AAB
:10046100E4F0900034E0FBBB20028075BB2B0280DE
:1004710067BB2D028059BB4202806FBB4302807C67
:10048100BB4403020705BB460302072BBB4803021B
:10049100031BBB4903020705BB4A0302031BBB4CF9
:1004A100028050BB4F03020713BB5003020673BB0C
:1004B10053028077BB540302031BBB550302071B86
:1004C100BB5803020723BB5A0302031B02073390E5
:1004D10000247401F002031B9000267401F0020352
:1004E1001B9000277401F002031B9000297401F096
:1004F10002031B90002A7401F002031B900029E003
:10050100600E900021E014F9F0900034E7F0800FC4
:10051100900021E024FEFFF08F01900034E7F0907D
:100521000034E0F5821201A1020742900021E0248B
:10053100FDFFF08F018705098706098707191990C3
:100541000010EDF0EEA3F0EFA3F08D828E838FF01B
:10055100120B76858208858309900030E0FAA3E0CA
:10056100FDBAFF0DBDFF0A900030E508F0E509A3D3
:10057100F0900024E0704B90002EE0FAA3E0FDC360
:10058100E5089AE5099D503A90002EEAC39508F0D6
:10059100ED9509A3F090002EE0FAA3E0FD8A068D07
:1005A100071ABAFF011DEE4F6010758220C005C009
:1005B100021201A1D002D00580E390002EEAF0EDF5
:1005C100A3F0900030E0F50BA3E0F50C900010E0F3
:1005D100FAA3E0FDA3E0FF8A828D838FF0120BAEB8
:1005E100F50A603CC3E4950B7480850CF063F080E0
:1005F10095F0502C150B74FFB50B02150C850A8272
:100601001201A1900010E0FAA3E0FDA3E0FF0ABAF5
:1006110000010D900010EAF0EDA3F0EFA3F080AC23
:10062100900024E0700302074290002EE0FEA3E058
:10063100FFC3E5089EE5099F400302074290002E93
:10064100EEC39508F0EF9509A3F090002EE0FEA30C
:10065100E0FF8E028F051EBEFF011FEA4D700302EF
:10066100073A758220C007C0061201A1D006D00743
:1006710080E0900021E024FDFDF08D01870D0987C8
:100681000E09870F1919900010E50DF0E50EA3F082
:10069100E50FA3F0900012E0FDBD8000400890003E
:1006A100347443F08020BD600040089000347450E1
:1006B100F08013BD400040089000347449F080067A
:1006C1009000347458F0900034E0FDF582C00512BA
:1006D10001A175823A1201A17582301201A17582C0
:1006E100781201A1D005BD4902800EBD50028009DA
:1006F100900011E0F5821201FC900010E0F58212E9
:1007010001FC803D9000287401F090002D740AF0E6
:10071100802F90002D7408F0802790002D740AF02E
:10072100801F90002D7410F0801790002B7401F041
:10073100800F8B821201A1800890002EEEF0EFA3B2
:10074100F090002BE06071900021E024FCFFF08F1D
:100751000187030987050987060987071919199070
:100761000010EBF0EDA3F0EEA3F0EFA3F09000107A
:1007710074D7F0740BA3F07480A3F0900010E0F52F
:100781000DA3E0F50EA3E0F50F7401250DFAE43594
:100791000EFBAF0F900010EAF0EBA3F0EFA3F08592
:1007A1000D82850E83850FF0120BAEFF70030202DE
:1007B100AD8F821201A180C390002DE0700302026F
:1007C100AD900029E06047900021E014F9F087071F
:1007D1007E007D007B00900010EFF0EEA3F0EDA312
:1007E100F0EBA3F0900028E0600302088590001070
:1007F100E0FBA3E0A3E0A3E07D007E007F0090008A
:1008010010EBF0EDA3F0EEA3F0EFA3F080769000F3
:100811002AE06028900021E024FCFFF08F0187038B
:10082100098705098706098707191919900010EB2F
:10083100F0EDA3F0EEA3F0EFA3F08048900021E0EB
:1008410024FEFFF08F01870609870719EF3395E032
:10085100FDFB900010EEF0EFA3F0EDA3F0EBA3F0A1
:10086100900028E0701E900010E0FBA3E0FDA3E0E3
:10087100A3E07E007F00900010EBF0EDA3F0EEA36B
:10088100F0EFA3F0900028E06041900010E0FBA39E
:10089100E0FDA3E0FEA3E0FF30E72B900010E0FBBA
:1008A100A3E0FDA3E0FEA3E0FFC3E49BFBE49DFD09
:1008B100E49EFEE49FFF900010EBF0EDA3F0EEA3A9
:1008C100F0EFA3F08005900028E4F090002C740173
:1008D100F090002DE0F50B75103A751100E4F50864
:1008E100F509900014E4F0850B8212021890002C97
:1008F100E07026900014E0C4F50D85108285118307
:10090100E0FFE50D4207851082851183EFF0151098
:1009110074FFB510021511800C900014E0FF8510D2
:1009210082851183F00508E4B50802050990002CC1
:10093100E0B40100E433F0900010E0FAA3E0FBA37F
:10094100E0FEA3E0FFEA4B4E4F709790003BE510AD
:10095100F0E511A3F0900032E508F0E509A3F0906D
:10096100002EE0F5F0A3E045F0700990002E74012F
:10097100F0E4A3F0900025E0FFE07047900024E050
:10098100704185081085091190002EE0FAA3E0FB63
:10099100C007AF100F8F067F00C3EE9AEF9BD00701
:1009A1005019758220C007C003C0021201A1D002F4
:1009B100D003D0071ABAFF011B80D590002EEAF0B0
:1009C100EBA3F0900028E0602075822DC007120192
:1009D100A1D00790002EE024FFFDA3E034FFFE909C
:1009E100002EEDF0EEA3F08056900032E0F5F0A37A
:1009F100E045F0604A900026E0602075822BC00738
:100A01001201A1D00790002EE024FFFDA3E034FFE6
:100A1100FE90002EEDF0EEA3F08024900027E06020
:100A21001E758220C0071201A1D00790002EE0247C
:100A3100FFFDA3E034FFFE90002EEDF0EEA3F09059
:100A41000024E07048900032E0F510A3E0F5119029
:100A5100002EE0FAA3E0FBC0078A068B071ABAFF53
:100A6100011BC3E5109EE5119FD0075053EF6006AF
:100A71007D307E0080047D207E008D82C007C00312
:100A8100C0021201A1D002D003D00780CA90002E6B
:100A9100E0FEA3E0FF900032E0F510A3E0F511C302
:100AA100E5109EE5119F500F90002EEEC39510F0BA
:100AB100EF9511A3F0801190002EE4F0A3F08008CF
:100AC10090002EEAF0EBA3F090003BE0FEA3E0FFE4
:100AD100900032E0F510A3E0F511AA10AD11151048
:100AE10074FFB510021511EA4D604590002CE0B479
:100AF1000100E433F090002CE070140EBE00010FF1
:100B01008E828F83E0C4540FFD900014F0800E8E0E
:100B1100828F83E0FD53050F900014EDF0900014D7
:100B2100E0F582C007C0061201DCD006D00780AA1A
:100B3100900024E070030202AD90002EE0FEA3E0DD
:100B4100FF8E038F051EBEFF011FEB4D70030202D6
:100B5100AD758220C007C0061201A1D006D0078062
:100B6100E08C821201A10202AD900015E0FEA3E02B
:050B71008E82F58322D5
:0B0BD7003C4E4F20464C4F41543E0066
:100B7600AA82AB83120BAE6003A380F8C3E5829A08
:100B8600F582E5839BF58322AA83AB828BF09000E6
:100B96003DE0A4F8A9F08AF0E0A429F98BF0A3E0DF
:080BA600A429F58388822222B4
:0D000600758113120062E5826003020003A1
:100BAE0020F71430F6148883A88220F507E6A88370
:0C0BBE0075830022E280F7E49322E0221D
:00000001FF
